HPRIMEBCBSMN                   202602092026020920260209                                                                                                                                                                               
D256298654949        00001000058567032549               000058567032549                       6700819360  112820625PAYCODE23732001000002341000000000000000200DYGJ                            j2405   AY 82403865971981006   207104    
D259628153311        00002000050745016266               000050745016266                       6700818163  112820625PAYCODE59074001000002341000000200000000000PD                              j2405   AY 82403865940285792   207104    
D268264792130        00003000052752198642               000052752198642                       6700814739  112820625PAYCODE51336001000002341000000200000000000PD                              j2405   AY 82403865932461796   207104    
D257026491476        00004000058705761091               000058705761091                       6700814917  112820625PAYCODE23524001000000000000000000000000200DYIO                            j2405   AY 82403865918932448   207104    
D260534905943        00005000050248451570               000050248451570                       6700812070  112820625PAYCODE76516001000002341000000200000000000PD                              j2405   AY 82403865996448729   207104    
D258809311698        00006000051280983604               000051280983604                       6700810931  112820625PAYCODE82722001000002341000000200000000000PD                              j2405   AY 82403865911132196   207104    
D259279772661        00007000058995486898               000058995486898                       6700815009  112820625PAYCODE45367001000002341000000200000000082PAIO                            j2405   AY 82403865995661208   207104    
D262936710224        00008000058084288770               000058084288770                       6700818131  112820625PAYCODE68043001000002341000000200000000000PD                              j2405   AY 82403865957379125   207104    
D258851319738        00009000056119465043               000056119465043                       6700810322  112820625PAYCODE42305001000002341000000200000000000PD                              j2405   AY 82403865940034291   207104    
D267385440056        00010000057128470593               000057128470593                       6700812598  112820625PAYCODE53082001000002341000000200000000000PD                              j2405   AY 82403865902960895   207104    
D264848658218        00011000058342086611               000058342086611                       6700815314  112820625PAYCODE50912001000002341000000200000000000PD                              j2405   AY 82403865939869493   207104    
D261417890138        00012000051668071411               000051668071411                       6700817207  112820625PAYCODE17999001000002341000000200000000000PD                              j2405   AY 82403865904909206   207104    
D266741746869        00013000052892836731               000052892836731                       6700816384  112820625PAYCODE20998001000002341000000200000000000PD                              j2405   AY 82403865997736434   207104    
D261812412291        00014000050235743074               000050235743074                       6700819324  112820625PAYCODE52861001000002341000000200000000000PD                              j2405   AY 82403865934395650   207104    
D264742026914        00015000053495932591               000053495932591                       6700819080  112820625PAYCODE14816001000002341000000200000000000PD                              j2405   AY 82403865987928620   207104    
D251722669497        00016000057257731555               000057257731555                       6700814508  112820625PAYCODE88097001000002341000000200000000000PD                              j2405   AY 82403865949815292   207104    
D252689007434        00017000054385596501               000054385596501                       6700816367  112820625PAYCODE70882001000002341000000200000000000PD                              j2405   AY 82403865948369457   207104    
D267183015425        00018000055335895990               000055335895990                       6700816592  112820625PAYCODE40232001000002341000000200000000000PD                              j2405   AY 82403865922514540   207104    
D267093859826        00019000058299061292               000058299061292                       6700816287  112820625PAYCODE18103001000002341000000200000000000PD                              j2405   AY 82403865931557322   207104    
D258561288648        00020000054253909052               000054253909052                       6700816856  112820625PAYCODE62202001000002341000000200000000000PD                              j2405   AY 82403865932226106   207104    
D260819590050        00021000059978317968               000059978317968                       6700815684  112820625PAYCODE73136001000002341000000200000000000PD                              j2405   AY 82403865901869776   207104    
D258860211348        00022000059281844891               000059281844891                       6700815083  112820625PAYCODE18935001000002341000000200000000000PD                              j2405   AY 82403865986968812   207104    
D259734932743        00023000057254259170               000057254259170                       6700811002  112820625PAYCODE43737001000002341000000200000000000PD                              j2405   AY 82403865924370384   207104    
D257734576669        00024000051944793740               000051944793740                       6700810747  112820625PAYCODE35489001000002341000000200000000000PD                              j2405   AY 82403865967986471   207104    
D258515590680        00025000051054377131               000051054377131                       6700811734  112820625PAYCODE81505001000002341000000200000000000PD                              j2405   AY 82403865990880165   207104    
D266697212796        00026000050113497257               000050113497257                       6700812661  112820625PAYCODE44251001000002341000000200000000000PD                              j2405   AY 82403865996922462   207104    
D256994711017        00027000052709517522               000052709517522                       6700811178  112820625PAYCODE08525001000002341000000200000000000PD                              j2405   AY 82403865983704140   207104    
D267358388336        00028000058044615516               000058044615516                       6700819874  112820625PAYCODE02533001000002341000000200000000000PD                              j2405   AY 82403865965049743   207104    
D261119628424        00029000053891150487               000053891150487                       6700816153  112820625PAYCODE40133001000002341000000200000000000PD                              j2405   AY 82403865928632855   207104    
D262763562852        00030000051448924125               000051448924125                       6700816830  112820625PAYCODE30934001000002341000000200000000000PD                              j2405   AY 82403865918724401   207104    
D263175430447        00031000053084810224               000053084810224                       6700813960  112820625PAYCODE37406001000002341000000200000000000PD                              j2405   AY 82403865949540221   207104    
D253485628551        00032000058595448972               000058595448972                       6700816541  112820625PAYCODE51295001000002341000000200000000000PD                              j2405   AY 82403865965052583   207104    
D269312051306        00033000054237474355               000054237474355                       6700811309  112820625PAYCODE88026001000002341000000200000000000PD                              j2405   AY 82403865933524565   207104    
D265144145375        00034000057297155301               000057297155301                       6700811678  112820625PAYCODE75572001000002341000000200000000000PD                              j2405   AY 82403865925100351   207104    
D263416999809        00035000055246002058               000055246002058                       6700815906  112820625PAYCODE41256001000002341000000200000000000PD                              j2405   AY 82403865992701432   207104    
D257422740013        00036000058446249698               000058446249698                       6700817566  112820625PAYCODE08981001000002341000000200000000000PD                              j2405   AY 82403865913714957   207104    
D262266152380        00037000054913618793               000054913618793                       6700816039  112820625PAYCODE32159001000002341000000200000000000PD                              j2405   AY 82403865967037066   207104    
D264502313218        00038000057308228508               000057308228508                       6700811483  112820625PAYCODE76388001000002341000000200000000000PD                              j2405   AY 82403865907046643   207104    
D259457790165        00039000051011140629               000051011140629                       6700812045  112820625PAYCODE34104001000002341000000200000000000PD                              j2405   AY 82403865960404823   207104    
D266167531988        00040000057428772627               000057428772627                       6700813195  112820625PAYCODE92549001000002341000000200000000000PD                              j2405   AY 82403865988009246   207104    
D250206304333        00041000055506243676               000055506243676                       6700810145  112820625PAYCODE75993001000002341000000200000000000PD                              j2405   AY 82403865942483854   207104    
D257190691689        00042000054897119046               000054897119046                       6700817949  112820625PAYCODE45485001000002341000000200000000000PD                              j2405   AY 82403865902220311   207104    
D256807730112        00043000050534275722               000050534275722                       6700813000  112820625PAYCODE60278001000002341000000200000000000PD                              j2405   AY 82403865941936347   207104    
D258911941829        00044000059544521333               000059544521333                       6700810137  112820625PAYCODE22967001000002341000000200000000000PD                              j2405   AY 82403865931893045   207104    
D268306677097        00045000052746298007               000052746298007                       6700810710  112820625PAYCODE82456001000002341000000200000000000PD                              j2405   AY 82403865916453508   207104    
D264010130469        00046000055772876153               000055772876153                       6700813781  112820625PAYCODE28284001000002341000000200000000000PD                              j2405   AY 82403865907657882   207104    
D253508200831        00047000050829853422               000050829853422                       6700812447  112820625PAYCODE15209001000002341000000200000000000PD                              j2405   AY 82403865950771512   207104    
D264929431107        00048000053962031151               000053962031151                       6700811455  112820625PAYCODE37551001000002341000000200000000000PD                              j2405   AY 82403865902387679   207104    
D268985299796        00049000056299558728               000056299558728                       6700815094  112820625PAYCODE56028001000002341000000200000000000PD                              j2405   AY 82403865900787081   207104    
D265926554874        00050000057874363906               000057874363906                       6700814599  112820625PAYCODE04689001000002341000000200000000000PD                              j2405   AY 82403865919467033   207104    
D256516841801        00051000054522793899               000054522793899                       6700819031  112820625PAYCODE81727001000002341000000200000000000PD                              j2405   AY 82403865900446368   207104    
D260266596650        00052000058205993518               000058205993518                       6700813785  112820625PAYCODE52307001000002341000000200000000000PD                              j2405   AY 82403865963801151   207104    
D259931076369        00053000050803680649               000050803680649                       6700818850  112820625PAYCODE43547001000002341000000200000000000PD                              j2405   AY 82403865919787617   207104    
D253701981599        00054000058701789874               000058701789874                       6700813930  112820625PAYCODE59846001000002341000000200000000000PD                              j2405   AY 82403865905925833   207104    
D266730983939        00055000054745937796               000054745937796                       6700811876  112820625PAYCODE72301001000002341000000200000000000PD                              j2405   AY 82403865983850262   207104    
D258803604812        00056000051707169743               000051707169743                       6700813022  112820625PAYCODE52965001000002341000000200000000000PD                              j2405   AY 82403865974735273   207104    
D260154250482        00057000053098442847               000053098442847                       6700817654  112820625PAYCODE84789001000002341000000200000000000PD                              j2405   AY 82403865959950246   207104    
D251878998293        00058000051372606867               000051372606867                       6700818717  112820625PAYCODE98856001000002341000000200000000000PD                              j2405   AY 82403865931200263   207104    
D250571698376        00059000056169014618               000056169014618                       6700811375  112820625PAYCODE49701001000002341000000200000000000PD                              j2405   AY 82403865931880267   207104    
D267775640557        00060000054865742870               000054865742870                       6700819467  112820625PAYCODE25629001000000000000000000000000200DY12                            j2405   AY 82403865961304445   207104    
D255769007683        00061000051238137787               000051238137787                       6700813076  112820625PAYCODE41072001000002341000000200000000000PD                              j2405   AY 82403865925276191   207104    
D253457069722        00062000051146623097               000051146623097                       6700819319  112820625PAYCODE65589001000002341000000200000000000PD                              j2405   AY 82403865988954299   207104    
D252061020414        00063000053415877759               000053415877759                       6700819676  112820625PAYCODE04853001000002341000000200000000000PD                              j2405   AY 82403865904662716   207104    
D259089323281        00064000058089307728               000058089307728                       6700819389  112820625PAYCODE81657001000002341000000200000000000PD                              j2405   AY 82403865991266070   207104    
D263002969183        00065000054268528508               000054268528508                       6700817260  112820625PAYCODE49317001000002341000000200000000000PD                              j2405   AY 82403865942857114   207104    
D269228868278        00066000058157497004               000058157497004                       6700810991  112820625PAYCODE38803001000002341000000200000000000PD                              j2405   AY 82403865912586798   207104    
D255793042171        00067000055102843089               000055102843089                       6700811351  112820625PAYCODE67693001000000000000000000000000200DYIO                            j2405   AY 82403865991158482   207104    
D268240538500        00068000052396977029               000052396977029                       6700816552  112820625PAYCODE01379001000002341000000200000000000PD                              j2405   AY 82403865928386109   207104    
D256375802843        00069000053476840939               000053476840939                       6700810766  112820625PAYCODE00006001000002341000000200000000000PD                              j2405   AY 82403865986505265   207104    
D252029072873        00070000055479003679               000055479003679                       6700816689  112820625PAYCODE87333001000002341000000200000000000PD                              j2405   AY 82403865963858892   207104    
D252746282268        00071000059578285509               000059578285509                       6700813493  112820625PAYCODE34965001000002341000000200000000000PD                              j2405   AY 82403865930111024   207104    
D254858608284        00072000059842078459               000059842078459                       6700814946  112820625PAYCODE63846001000002341000000200000000000PD                              j2405   AY 82403865925612596   207104    
D265525078975        00073000050881940556               000050881940556                       6700819908  112820625PAYCODE84051001000002341000000200000000000PD                              j2405   AY 82403865949877927   207104    
D259604555048        00074000050902195073               000050902195073                       6700812735  112820625PAYCODE76496001000002341000000200000000000PD                              j2405   AY 82403865991598153   207104    
D261813445347        00075000056536102259               000056536102259                       6700818787  112820625PAYCODE11961001000002341000000200000000000PD                              j2405   AY 82403865925640586   207104    
TTRAILER75                                                                                                                                                                                                                            