HPRIMEBCBSMN                   202602272026022720260227                                                                                                                                                                               
D251300444085        00001000050589997549               000050589997549                       6700816839  357734413PAYCODE15035001000048644000000000000000000PD                              j2405   AY 82403865925095178   207104    
D266432438955        00002000056594239728               000056594239728                       6700814024  164689587PAYCODE56224001000009246000000000000000000PD                              j2405   AY 82403865992448550   207104    
D254294294432        00003000054768176830               000054768176830                       6700815590  520258717PAYCODE62952001000040787000000056000000000PD                              j2405   AY 82403865916148003   207104    
D266860308505        00004000057080815134               000057080815134                       6700818851  322056902PAYCODE26766001000026325000000472000000000PD                              j2405   AY 82403865987843724   207104    
D259223898604        00005000059232471271               000059232471271                       6700815983  368678350PAYCODE41088001000037169000000168000000000PD                              j2405   AY 82403865942989754   207104    
D268097338194        00006000057214103879               000057214103879                       6700817844  132438777PAYCODE83502001000049742000000169000000000PD                              j2405   AY 82403865997929485   207104    
D266134851984        00007000056973039781               000056973039781                       6700811229  111804343PAYCODE10342001000005673000000249000000000PD                              j2405   AY 82403865956188248   207104    
D265521862426        00008000056761954183               000056761954183                       6700817245  744570574PAYCODE72030001000036960000000382000000000PD                              j2405   AY 82403865934874017   207104    
D255489045670        00009000054007355546               000054007355546                       6700810935  601483616PAYCODE87206001000042888000000274000000000PD                              j2405   AY 82403865950098266   207104    
D253107406616        00010000052056189213               000052056189213                    6700814311  636821550PAYCODE89438001000034662000000225000000000PD                              j2405   AY 82403865956796542   207104    
D250183477155        00011000056769440859               000056769440859                       6700810524  999656006PAYCODE16739001000001400000000379000000000PD                              j2405   AY 82403865962592383   207104    
D259945023126        00012000050751165567               000050751165567                       6700810133  789839525PAYCODE44532001000005876000000447000000000PD                              j2405   AY 82403865948198077   207104    
D268462469337        00013000050410880307               000050410880307                       6700813097  216751774PAYCODE73698001000026175000000048000000000PD                              j2405   AY 82403865971995911   207104    
D264899331449        00014000057578913509               000057578913509                       6700817545  168568650PAYCODE01636001000045203000000127000000000PD                              j2405   AY 82403865937038889   207104    
D263144664202        00015000054979285776               000054979285776                       6700810973  354297369PAYCODE22692001000040776000000153000000000PD                              j2405   AY 82403865999105556   207104    
D258582374996        00016000054867964327               000054867964327                       6700810687  077629259PAYCODE50027001000031011000000293000000000PD                              j2405   AY 82403865987890271   207104    
D254372124051        00017000053472024662               000053472024662                       6700812494  225681921PAYCODE09485001000026954000000300000000000PD                              j2405   AY 82403865931690581   207104    
D251041198391        00018000054659707939               000054659707939                       6700815489  559568452PAYCODE55620001000028778000000506000000000PD                              j2405   AY 82403865908566671   207104    
D259059097405        00019000057017280259               000057017280259                       6700812449  304552763PAYCODE60580001000031335000000076000000000PD                              j2405   AY 82403865908592812   207104    
D260207425041        00020000059817771603               000059817771603                       6700815432  948022165PAYCODE44469001000010556000000053000000000PD                              j2405   AY 82403865936436727   207104    
D254537891151        00021000050214310463               000050214310463                       6700810631  053023943PAYCODE55314001000023606000000262000000000PD                              j2405   AY 82403865943063325   207104    
D265224074293        00022000053773551120               000053773551120                       6700813742  224294814PAYCODE76834001000039518000000376000000000PD                              j2405   AY 82403865998256754   207104    
D259462999442        00023000059863952766               000059863952766                       6700813568  800895801PAYCODE78055001000042563000000349000000000PD                              j2405   AY 82403865958467130   207104    
D266446286420        00024000059898960884               000059898960884                       6700814654  833335356PAYCODE63085001000011072000000228000000000PD                              j2405   AY 82403865943484806   207104    
D256529715758        00025000057157099079               000057157099079                       6700815931  733828405PAYCODE56812001000028510000000186000000000PD                              j2405   AY 82403865998430822   207104    
D262323798620        00026000052969609608               000052969609608                       6700813509  651954131PAYCODE87208001000032188000000196000000000PD                              j2405   AY 82403865947574671   207104    
D250407604292        00027000053716819482               000053716819482                       6700817088  040504651PAYCODE09179001000045583000000364000000000PD                              j2405   AY 82403865972208448   207104    
D260642811737        00028000058890027948               000058890027948                       6700815707  439936311PAYCODE84301001000020023000000221000000000PD                              j2405   AY 82403865964237563   207104    
D262681826186        00029000055190829907               000055190829907                       6700818962  609665748PAYCODE41598001000024687000000027000000000PD                              j2405   AY 82403865960710655   207104    
D256098192592        00030000055615734891               000055615734891                       6700818226  953605703PAYCODE64949001000042540000000043000000000PD                              j2405   AY 82403865991392450   207104    
D251820730504        00031000057809460930               000057809460930                       6700815499  164496020PAYCODE72859001000008259000000346000000000PD                              j2405   AY 82403865971738770   207104    
D261000588618        00032000059648477214               000059648477214                       6700814022  459655523PAYCODE44106001000015521000000435000000000PD                              j2405   AY 82403865927408567   207104    
D256006313318        00033000053928223404               000053928223404                       6700810193  528495560PAYCODE13445001000019229000000108000000000PD                              j2405   AY 82403865948251187   207104    
D261354712878        00034000056264629010               000056264629010                       6700813692  777326104PAYCODE17498001000027409000000093000000000PD                              j2405   AY 82403865908063511   207104    
D269455067297        00035000056843149246               000056843149246                       6700814906  151297527PAYCODE61245001000029215000000011000000000PD                              j2405   AY 82403865943650947   207104    
D250220527345        00036000050273479463               000050273479463                       6700812019  022365700PAYCODE97003001000032350000000324000000000PD                              j2405   AY 82403865913900841   207104    
D266689352241        00037000056793651067               000056793651067                       6700813721  174542489PAYCODE09762001000004822000000100000000000PD                              j2405   AY 82403865917042776   207104    
D269225560414        00038000053378296469               000053378296469                       6700814271  233471895PAYCODE94239001000025168000000470000000000PD                              j2405   AY 82403865905539432   207104    
D264996182264        00039000052702713272               000052702713272                       6700814583  163737916PAYCODE73774001000006128000000199000000000PD                              j2405   AY 82403865984538876   207104    
D259655819005        00040000050123698976               000050123698976                       6700811161  077090266PAYCODE77773001000014678000000430000000000PD                              j2405   AY 82403865997976556   207104    
D253679850854        00041000059030739646               000059030739646                       6700819505  147876684PAYCODE49786001000046079000000382000000000PD                              j2405   AY 82403865990423245   207104    
D259232467320        00042000050368839861               000050368839861                       6700816474  570196870PAYCODE50336001000026852000000402000000000PD                              j2405   AY 82403865907531676   207104    
D265266473565        00043000052507307450               000052507307450                       6700812600  484398186PAYCODE33501001000015732000000032000000000PD                              j2405   AY 82403865969226019   207104    
D255074644973        00044000057435610076               000057435610076                       6700818187  739628029PAYCODE57409001000003253000000294000000000PD                              j2405   AY 82403865913488038   207104    
D266386070953        00045000054090855949               000054090855949                       6700816816  304494734PAYCODE86879001000005357000000444000000000PD                              j2405   AY 82403865960679338   207104    
D257293917660        00046000052275075238               000052275075238                       6700815378  950674338PAYCODE32032001000025985000000183000000000PD                              j2405   AY 82403865991323187   207104    
D268425894588        00047000055056250251               000055056250251                       6700812836  967811382PAYCODE89203001000013982000000487000000000PD                              j2405   AY 82403865908925816   207104    
D261596919128        00048000051576875840               000051576875840                       6700816338  625714783PAYCODE30534001000003562000000066000000000PD                              j2405   AY 82403865934537468   207104    
D250808803354        00049000050724781308               000050724781308                       6700818264  159156028PAYCODE71606001000019603000000377000000000PD                              j2405   AY 82403865963422572   207104    
D252082380278        00050000053966130796               000053966130796                       6700819846  799581864PAYCODE29273001000037990000000373000000000PD                              j2405   AY 82403865951939779   207104    
D253155206788        00051000055388309086               000055388309086                       6700813834  647080889PAYCODE18781001000025417000000011000000000PD                              j2405   AY 82403865921583202   207104    
D253138326981        00052000052770725401               000052770725401                       6700819689  061586343PAYCODE70603001000031094000000392000000000PD                              j2405   AY 82403865939052895   207104    
D268913282103        00053000050187835199               000050187835199                       6700817034  118603613PAYCODE84765001000018878000000128000000000PD                              j2405   AY 82403865969008155   207104    
D258604167670        00054000050696434904               000050696434904                       6700815712  685224375PAYCODE52503001000011401000000084000000000PD                              j2405   AY 82403865979663680   207104    
D251169875399        00055000059987259848               000059987259848                       6700814190  286652789PAYCODE76623001000022316000000231000000000PD                              j2405   AY 82403865942905180   207104    
D263940175270        00056000057102269502               000057102269502                       6700813250  277903151PAYCODE83992001000013410000000295000000000PD                              j2405   AY 82403865974922966   207104    
D260492292540        00057000057044515693               000057044515693                       6700811669  984534559PAYCODE82749001000024062000000451000000000PD                              j2405   AY 82403865943605044   207104    
D263448269251        00058000053457364151               000053457364151                       6700813681  905283675PAYCODE54270001000006610000000349000000000PD                              j2405   AY 82403865927857982   207104    
D252683351905        00059000053996440118               000053996440118                       6700811797  116212981PAYCODE45173001000033243000000099000000000PD                              j2405   AY 82403865917961529   207104    
D268891596538        00060000051228534588               000051228534588                       6700817330  997208909PAYCODE27476001000010986000000395000000000PD                              j2405   AY 82403865974938716   207104    
D266138808585        00061000055147097874               000055147097874                       6700814660  010161987PAYCODE86364001000011621000000020000000000PD                              j2405   AY 82403865981002206   207104    
D255192729317        00062000059700487686               000059700487686                       6700815761  391104318PAYCODE82342001000024135000000149000000000PD                              j2405   AY 82403865914310861   207104    
D257963052797        00063000053630254379               000053630254379                       6700811143  037625428PAYCODE06544001000040450000000408000000000PD                              j2405   AY 82403865909406006   207104    
D269736280341        00064000058102325449               000058102325449                       6700811787  405067926PAYCODE80728001000002859000000362000000000PD                              j2405   AY 82403865988988668   207104    
D258452876573        00065000055163537515               000055163537515                       6700819591  446632981PAYCODE85712001000014805000000051000000000PD                              j2405   AY 82403865986303421   207104    
D267461570013        00066000050900550052               000050900550052                       6700811478  615615539PAYCODE21268001000039058000000213000000000PD                              j2405   AY 82403865970189787   207104    
D256472906937        00067000050439131621               000050439131621                       6700815998  463083613PAYCODE09745001000014206000000410000000000PD                              j2405   AY 82403865984372831   207104    
D263498453954        00068000056959812250               000056959812250                       6700810778  465901975PAYCODE29934001000027997000000357000000000PD                              j2405   AY 82403865906340038   207104    
D253791676194        00069000051798154755               000051798154755                       6700815626  966710721PAYCODE75987001000004877000000359000000000PD                              j2405   AY 82403865935242237   207104    
D258665608593        00070000056123047086               000056123047086                       6700810980  571112534PAYCODE75311001000039566000000022000000000PD                              j2405   AY 82403865963058427   207104    
D267794729064        00071000052683516170               000052683516170                       6700812273  656075050PAYCODE69783001000003740000000417000000000PD                              j2405   AY 82403865942084754   207104    
D259633653620        00072000058305347423               000058305347423                       6700811055  371947187PAYCODE61553001000044364000000090000000000PD                              j2405   AY 82403865906602172   207104    
D265260840329        00073000050095929976               000050095929976                       6700819218  347608275PAYCODE17600001000022526000000169000000000PD                              j2405   AY 82403865946305758   207104    
D251518315518        00074000059377205172               000059377205172                       6700814123  817052077PAYCODE71671001000001406000000395000000000PD                              j2405   AY 82403865944841762   207104    
D256195374598        00075000052301669893               000052301669893                       6700816404  316507231PAYCODE69140001000013646000000154000000000PD                              j2405   AY 82403865990440053   207104    
D251410274883        00076000050801940919               000050801940919                       6700813828  162135107PAYCODE47893001000005863000000143000000000PD                              j2405   AY 82403865996467073   207104    
D268807728858        00077000051256099558               000051256099558                       6700819612  975067124PAYCODE53184001000028591000000316000000000PD                              j2405   AY 82403865990307252   207104    
D260096409813        00078000053966691969               000053966691969                       6700814095  467926303PAYCODE75145001000013103000000053000000000PD                              j2405   AY 82403865995024582   207104    
D254599990575        00079000058972998974               000058972998974                       6700816817  699521341PAYCODE27026001000023306000000439000000000PD                              j2405   AY 82403865939320555   207104    
D255070697798        00080000051303741763               000051303741763                       6700814743  709896038PAYCODE98092001000040342000000419000000000PD                              j2405   AY 82403865947828656   207104    
D250778971065        00081000054125519084               000054125519084                       6700817309  787089888PAYCODE58443001000013523000000144000000000PD                              j2405   AY 82403865992297769   207104    
D264023329161        00082000054032015404               000054032015404                       6700817913  954414826PAYCODE34700001000048301000000054000000000PD                              j2405   AY 82403865954496605   207104    
D261787814400        00083000054987304655               000054987304655                       6700811074  410594668PAYCODE51092001000029535000000278000000000PD                              j2405   AY 82403865968755904   207104    
D252728939017        00084000058025858002               000058025858002                       6700817191  851194344PAYCODE82685001000028773000000110000000000PD                              j2405   AY 82403865936710476   207104    
D268674089045        00085000055871785646               000055871785646                       6700814466  090220291PAYCODE54331001000029351000000105000000000PD                              j2405   AY 82403865961414946   207104    
D264719189694        00086000058877715196               000058877715196                       6700816411  022161928PAYCODE18838001000025914000000487000000000PD                              j2405   AY 82403865959213030   207104    
D264495624923        00087000052860745137               000052860745137                       6700818739  995405058PAYCODE63079001000040750000000285000000000PD                              j2405   AY 82403865962732584   207104    
D267940092878        00088000059647720481               000059647720481                       6700811899  922174832PAYCODE64796001000000998000000117000000000PD                              j2405   AY 82403865946783534   207104    
D251544679079        00089000058371135723               000058371135723                       6700810526  443971128PAYCODE22938001000024730000000035000000000PD                              j2405   AY 82403865980258368   207104    
D261343066741        00090000059900386289               000059900386289                       6700811339  935355280PAYCODE66264001000046381000000309000000000PD                              j2405   AY 82403865949894069   207104    
D260691549290        00091000057326444061               000057326444061                       6700818482  390278252PAYCODE81693001000022962000000347000000000PD                              j2405   AY 82403865916233794   207104    
D265167896830        00092000053698954428               000053698954428                       6700811575  237588191PAYCODE58971001000026990000000136000000000PD                              j2405   AY 82403865919273043   207104    
D268236368811        00093000058417941736               000058417941736                       6700818726  442490140PAYCODE47956001000017078000000033000000000PD                              j2405   AY 82403865910477235   207104    
D267190660009        00094000057658406886               000057658406886                       6700813355  866071900PAYCODE52513001000035697000000131000000000PD                              j2405   AY 82403865914451446   207104    
D257145027872        00095000059860123565               000059860123565                       6700813984  701653865PAYCODE71743001000023924000000306000000000PD                              j2405   AY 82403865999941207   207104    
D250862609091        00096000059220984057               000059220984057                       6700819850  481588520PAYCODE34191001000028884000000243000000000PD                              j2405   AY 82403865972866453   207104    
D262766904568        00097000052788820603               000052788820603                       6700811248  491598439PAYCODE29747001000004651000000343000000000PD                              j2405   AY 82403865903444291   207104    
D257252107837        00098000056426225709               000056426225709                       6700814417  238491588PAYCODE19271001000028516000000194000000000PD                              j2405   AY 82403865977071887   207104    
D254363065414        00099000053758756444               000053758756444                       6700813522  736916628PAYCODE81492001000029712000000120000000000PD                              j2405   AY 82403865963206753   207104    
D253597637566        00100000053652952747               000053652952747                       6700810148  805151451PAYCODE73009001000017712000000187000000000PD                              j2405   AY 82403865986640940   207104    
TTRAILER100                                                                                                                                                                                                                           